{
  "_format": "hh-sol-artifact-1",
  "contractName": "Transactions",
  "sourceName": "contracts/Transactions.sol",
  "abi": [
    {
      "anonymous": false,
      "inputs": [
        {
          "indexed": false,
          "internalType": "address",
          "name": "from",
          "type": "address"
        },
        {
          "indexed": false,
          "internalType": "address",
          "name": "to",
          "type": "address"
        },
        {
          "indexed": false,
          "internalType": "uint256",
          "name": "amount",
          "type": "uint256"
        },
        {
          "indexed": false,
          "internalType": "string",
          "name": "message",
          "type": "string"
        },
        {
          "indexed": false,
          "internalType": "uint256",
          "name": "timestamp",
          "type": "uint256"
        },
        {
          "indexed": false,
          "internalType": "string",
          "name": "keyword",
          "type": "string"
        }
      ],
      "name": "Transfer",
      "type": "event"
    },
    {
      "inputs": [
        {
          "internalType": "address payable",
          "name": "receiver",
          "type": "address"
        },
        {
          "internalType": "uint256",
          "name": "amount",
          "type": "uint256"
        },
        {
          "internalType": "string",
          "name": "twitter",
          "type": "string"
        },
        {
          "internalType": "string",
          "name": "message",
          "type": "string"
        },
        {
          "internalType": "string",
          "name": "keyword",
          "type": "string"
        }
      ],
      "name": "addToBlockchain",
      "outputs": [],
      "stateMutability": "nonpayable",
      "type": "function"
    },
    {
      "inputs": [],
      "name": "getAllTransactions",
      "outputs": [
        {
          "components": [
            {
              "internalType": "address",
              "name": "sender",
              "type": "address"
            },
            {
              "internalType": "address",
              "name": "receiver",
              "type": "address"
            },
            {
              "internalType": "uint256",
              "name": "amount",
              "type": "uint256"
            },
            {
              "internalType": "string",
              "name": "twitter",
              "type": "string"
            },
            {
              "internalType": "string",
              "name": "message",
              "type": "string"
            },
            {
              "internalType": "uint256",
              "name": "timestamp",
              "type": "uint256"
            },
            {
              "internalType": "string",
              "name": "keyword",
              "type": "string"
            }
          ],
          "internalType": "struct Transactions.TransferStruct[]",
          "name": "",
          "type": "tuple[]"
        }
      ],
      "stateMutability": "view",
      "type": "function"
    },
    {
      "inputs": [],
      "name": "getTransactionCount",
      "outputs": [
        {
          "internalType": "uint256",
          "name": "",
          "type": "uint256"
        }
      ],
      "stateMutability": "view",
      "type": "function"
    }
  ],
  "bytecode": "0x608060405234801561001057600080fd5b50610cfa806100206000396000f3fe608060405234801561001057600080fd5b50600436106100415760003560e01c806327506f53146100465780632e7700f014610064578063be9863a314610082575b600080fd5b61004e61009e565b60405161005b91906109b3565b60405180910390f35b61006c610373565b60405161007991906109d5565b60405180910390f35b61009c60048036038101906100979190610695565b61037c565b005b60606001805480602002602001604051908101604052809291908181526020016000905b8282101561036a57838290600052602060002090600702016040518060e00160405290816000820160009054906101000a900473ffffffffffffffffffffffffffffffffffffffff1673ffffffffffffffffffffffffffffffffffffffff1673ffffffffffffffffffffffffffffffffffffffff1681526020016001820160009054906101000a900473ffffffffffffffffffffffffffffffffffffffff1673ffffffffffffffffffffffffffffffffffffffff1673ffffffffffffffffffffffffffffffffffffffff168152602001600282015481526020016003820180546101ab90610b7d565b80601f01602080910402602001604051908101604052809291908181526020018280546101d790610b7d565b80156102245780601f106101f957610100808354040283529160200191610224565b820191906000526020600020905b81548152906001019060200180831161020757829003601f168201915b5050505050815260200160048201805461023d90610b7d565b80601f016020809104026020016040519081016040528092919081815260200182805461026990610b7d565b80156102b65780601f1061028b576101008083540402835291602001916102b6565b820191906000526020600020905b81548152906001019060200180831161029957829003601f168201915b50505050508152602001600582015481526020016006820180546102d990610b7d565b80601f016020809104026020016040519081016040528092919081815260200182805461030590610b7d565b80156103525780601f1061032757610100808354040283529160200191610352565b820191906000526020600020905b81548152906001019060200180831161033557829003601f168201915b505050505081525050815260200190600101906100c2565b50505050905090565b60008054905090565b60008081548092919061038e90610baf565b919050555060016040518060e001604052803373ffffffffffffffffffffffffffffffffffffffff1681526020018773ffffffffffffffffffffffffffffffffffffffff16815260200186815260200185815260200184815260200142815260200183815250908060018154018082558091505060019003906000526020600020906007020160009091909190915060008201518160000160006101000a81548173ffffffffffffffffffffffffffffffffffffffff021916908373ffffffffffffffffffffffffffffffffffffffff16021790555060208201518160010160006101000a81548173ffffffffffffffffffffffffffffffffffffffff021916908373ffffffffffffffffffffffffffffffffffffffff1602179055506040820151816002015560608201518160030190805190602001906104d1929190610560565b5060808201518160040190805190602001906104ee929190610560565b5060a0820151816005015560c0820151816006019080519060200190610515929190610560565b5050507f416cfa4330a4565f45c2fd2dd4826a83a37443aba2ce6f79477c7355afac35fa33868685428660405161055196959493929190610944565b60405180910390a15050505050565b82805461056c90610b7d565b90600052602060002090601f01602090048101928261058e57600085556105d5565b82601f106105a757805160ff19168380011785556105d5565b828001600101855582156105d5579182015b828111156105d45782518255916020019190600101906105b9565b5b5090506105e291906105e6565b5090565b5b808211156105ff5760008160009055506001016105e7565b5090565b600061061661061184610a21565b6109f0565b90508281526020810184848401111561062e57600080fd5b610639848285610b3b565b509392505050565b60008135905061065081610c96565b92915050565b600082601f83011261066757600080fd5b8135610677848260208601610603565b91505092915050565b60008135905061068f81610cad565b92915050565b600080600080600060a086880312156106ad57600080fd5b60006106bb88828901610641565b95505060206106cc88828901610680565b945050604086013567ffffffffffffffff8111156106e957600080fd5b6106f588828901610656565b935050606086013567ffffffffffffffff81111561071257600080fd5b61071e88828901610656565b925050608086013567ffffffffffffffff81111561073b57600080fd5b61074788828901610656565b9150509295509295909350565b6000610760838361087c565b905092915050565b61077181610b05565b82525050565b61078081610ab7565b82525050565b61078f81610ab7565b82525050565b60006107a082610a61565b6107aa8185610a84565b9350836020820285016107bc85610a51565b8060005b858110156107f857848403895281516107d98582610754565b94506107e483610a77565b925060208a019950506001810190506107c0565b50829750879550505050505092915050565b600061081582610a6c565b61081f8185610a95565b935061082f818560208601610b4a565b61083881610c85565b840191505092915050565b600061084e82610a6c565b6108588185610aa6565b9350610868818560208601610b4a565b61087181610c85565b840191505092915050565b600060e0830160008301516108946000860182610777565b5060208301516108a76020860182610777565b5060408301516108ba6040860182610926565b50606083015184820360608601526108d2828261080a565b915050608083015184820360808601526108ec828261080a565b91505060a083015161090160a0860182610926565b5060c083015184820360c0860152610919828261080a565b9150508091505092915050565b61092f81610afb565b82525050565b61093e81610afb565b82525050565b600060c0820190506109596000830189610786565b6109666020830188610768565b6109736040830187610935565b81810360608301526109858186610843565b90506109946080830185610935565b81810360a08301526109a68184610843565b9050979650505050505050565b600060208201905081810360008301526109cd8184610795565b905092915050565b60006020820190506109ea6000830184610935565b92915050565b6000604051905081810181811067ffffffffffffffff82111715610a1757610a16610c56565b5b8060405250919050565b600067ffffffffffffffff821115610a3c57610a3b610c56565b5b601f19601f8301169050602081019050919050565b6000819050602082019050919050565b600081519050919050565b600081519050919050565b6000602082019050919050565b600082825260208201905092915050565b600082825260208201905092915050565b600082825260208201905092915050565b6000610ac282610adb565b9050919050565b6000610ad482610adb565b9050919050565b600073ffffffffffffffffffffffffffffffffffffffff82169050919050565b6000819050919050565b6000610b1082610b17565b9050919050565b6000610b2282610b29565b9050919050565b6000610b3482610adb565b9050919050565b82818337600083830152505050565b60005b83811015610b68578082015181840152602081019050610b4d565b83811115610b77576000848401525b50505050565b60006002820490506001821680610b9557607f821691505b60208210811415610ba957610ba8610c27565b5b50919050565b6000610bba82610afb565b91507fffffffffffffffffffffffffffffffffffffffffffffffffffffffffffffffff821415610bed57610bec610bf8565b5b600182019050919050565b7f4e487b7100000000000000000000000000000000000000000000000000000000600052601160045260246000fd5b7f4e487b7100000000000000000000000000000000000000000000000000000000600052602260045260246000fd5b7f4e487b7100000000000000000000000000000000000000000000000000000000600052604160045260246000fd5b6000601f19601f8301169050919050565b610c9f81610ac9565b8114610caa57600080fd5b50565b610cb681610afb565b8114610cc157600080fd5b5056fea26469706673582212206a22a59dbb57e0ca41acd786d12118a10282c53573b8bb8138e655927995d47664736f6c63430008000033",
  "linkReferences": {},
  "deployedLinkReferences": {}
}